{
  "_format": "hh-sol-artifact-1",
  "contractName": "Soul",
  "sourceName": "contracts/Soul.sol",
  "abi": [
    {
      "inputs": [
        {
          "internalType": "string",
          "name": "_soulName",
          "type": "string"
        },
        {
          "internalType": "string",
          "name": "_sbtSym",
          "type": "string"
        },
        {
          "internalType": "address",
          "name": "_soulManagerAddr",
          "type": "address"
        },
        {
          "internalType": "address",
          "name": "_owner",
          "type": "address"
        },
        {
          "internalType": "uint256",
          "name": "_soulId",
          "type": "uint256"
        }
      ],
      "stateMutability": "nonpayable",
      "type": "constructor"
    },
    {
      "anonymous": false,
      "inputs": [
        {
          "indexed": true,
          "internalType": "address",
          "name": "owner",
          "type": "address"
        },
        {
          "indexed": true,
          "internalType": "address",
          "name": "approved",
          "type": "address"
        },
        {
          "indexed": true,
          "internalType": "uint256",
          "name": "tokenId",
          "type": "uint256"
        }
      ],
      "name": "Approval",
      "type": "event"
    },
    {
      "anonymous": false,
      "inputs": [
        {
          "indexed": true,
          "internalType": "address",
          "name": "owner",
          "type": "address"
        },
        {
          "indexed": true,
          "internalType": "address",
          "name": "operator",
          "type": "address"
        },
        {
          "indexed": false,
          "internalType": "bool",
          "name": "approved",
          "type": "bool"
        }
      ],
      "name": "ApprovalForAll",
      "type": "event"
    },
    {
      "anonymous": false,
      "inputs": [
        {
          "indexed": false,
          "internalType": "address",
          "name": "",
          "type": "address"
        },
        {
          "indexed": false,
          "internalType": "string",
          "name": "",
          "type": "string"
        }
      ],
      "name": "ApprovalSent",
      "type": "event"
    },
    {
      "anonymous": false,
      "inputs": [
        {
          "indexed": false,
          "internalType": "address",
          "name": "",
          "type": "address"
        },
        {
          "indexed": false,
          "internalType": "address",
          "name": "",
          "type": "address"
        },
        {
          "indexed": false,
          "internalType": "uint256",
          "name": "",
          "type": "uint256"
        },
        {
          "indexed": false,
          "internalType": "string",
          "name": "",
          "type": "string"
        }
      ],
      "name": "TokenReceived",
      "type": "event"
    },
    {
      "anonymous": false,
      "inputs": [
        {
          "indexed": true,
          "internalType": "address",
          "name": "from",
          "type": "address"
        },
        {
          "indexed": true,
          "internalType": "address",
          "name": "to",
          "type": "address"
        },
        {
          "indexed": true,
          "internalType": "uint256",
          "name": "tokenId",
          "type": "uint256"
        }
      ],
      "name": "Transfer",
      "type": "event"
    },
    {
      "inputs": [
        {
          "internalType": "address",
          "name": "to",
          "type": "address"
        },
        {
          "internalType": "uint256",
          "name": "tokenId",
          "type": "uint256"
        }
      ],
      "name": "approve",
      "outputs": [],
      "stateMutability": "nonpayable",
      "type": "function"
    },
    {
      "inputs": [
        {
          "internalType": "address",
          "name": "owner",
          "type": "address"
        }
      ],
      "name": "balanceOf",
      "outputs": [
        {
          "internalType": "uint256",
          "name": "",
          "type": "uint256"
        }
      ],
      "stateMutability": "view",
      "type": "function"
    },
    {
      "inputs": [
        {
          "internalType": "address",
          "name": "issuer",
          "type": "address"
        },
        {
          "internalType": "string",
          "name": "tokenURI",
          "type": "string"
        },
        {
          "internalType": "bytes",
          "name": "signature",
          "type": "bytes"
        }
      ],
      "name": "claimSBT",
      "outputs": [],
      "stateMutability": "nonpayable",
      "type": "function"
    },
    {
      "inputs": [
        {
          "internalType": "uint256",
          "name": "tokenId",
          "type": "uint256"
        }
      ],
      "name": "getApproved",
      "outputs": [
        {
          "internalType": "address",
          "name": "",
          "type": "address"
        }
      ],
      "stateMutability": "view",
      "type": "function"
    },
    {
      "inputs": [
        {
          "internalType": "uint256",
          "name": "_tokenId",
          "type": "uint256"
        }
      ],
      "name": "getIssuer",
      "outputs": [
        {
          "internalType": "address",
          "name": "",
          "type": "address"
        }
      ],
      "stateMutability": "view",
      "type": "function"
    },
    {
      "inputs": [],
      "name": "getOwner",
      "outputs": [
        {
          "internalType": "address",
          "name": "_owner",
          "type": "address"
        }
      ],
      "stateMutability": "view",
      "type": "function"
    },
    {
      "inputs": [
        {
          "internalType": "uint256",
          "name": "_tokenId",
          "type": "uint256"
        }
      ],
      "name": "getTokenURI",
      "outputs": [
        {
          "internalType": "string",
          "name": "",
          "type": "string"
        }
      ],
      "stateMutability": "view",
      "type": "function"
    },
    {
      "inputs": [
        {
          "internalType": "address",
          "name": "owner",
          "type": "address"
        },
        {
          "internalType": "address",
          "name": "operator",
          "type": "address"
        }
      ],
      "name": "isApprovedForAll",
      "outputs": [
        {
          "internalType": "bool",
          "name": "",
          "type": "bool"
        }
      ],
      "stateMutability": "view",
      "type": "function"
    },
    {
      "inputs": [
        {
          "internalType": "bytes32",
          "name": "hash",
          "type": "bytes32"
        },
        {
          "internalType": "bytes",
          "name": "signature",
          "type": "bytes"
        }
      ],
      "name": "isValidSignature",
      "outputs": [
        {
          "internalType": "bytes4",
          "name": "magicValue",
          "type": "bytes4"
        }
      ],
      "stateMutability": "view",
      "type": "function"
    },
    {
      "inputs": [
        {
          "internalType": "address",
          "name": "recipient",
          "type": "address"
        },
        {
          "internalType": "string",
          "name": "tokenURI",
          "type": "string"
        }
      ],
      "name": "issuePendingSBT",
      "outputs": [],
      "stateMutability": "nonpayable",
      "type": "function"
    },
    {
      "inputs": [
        {
          "internalType": "address",
          "name": "recipient",
          "type": "address"
        },
        {
          "internalType": "string",
          "name": "tokenURI",
          "type": "string"
        }
      ],
      "name": "issueSBTtoOther",
      "outputs": [
        {
          "internalType": "uint256",
          "name": "",
          "type": "uint256"
        }
      ],
      "stateMutability": "nonpayable",
      "type": "function"
    },
    {
      "inputs": [
        {
          "internalType": "string",
          "name": "tokenURI",
          "type": "string"
        }
      ],
      "name": "issueSBTtoSelf",
      "outputs": [
        {
          "internalType": "uint256",
          "name": "",
          "type": "uint256"
        }
      ],
      "stateMutability": "nonpayable",
      "type": "function"
    },
    {
      "inputs": [],
      "name": "name",
      "outputs": [
        {
          "internalType": "string",
          "name": "",
          "type": "string"
        }
      ],
      "stateMutability": "view",
      "type": "function"
    },
    {
      "inputs": [
        {
          "internalType": "address",
          "name": "",
          "type": "address"
        },
        {
          "internalType": "address",
          "name": "",
          "type": "address"
        },
        {
          "internalType": "uint256",
          "name": "",
          "type": "uint256"
        },
        {
          "internalType": "bytes",
          "name": "_data",
          "type": "bytes"
        }
      ],
      "name": "onERC721Received",
      "outputs": [
        {
          "internalType": "bytes4",
          "name": "",
          "type": "bytes4"
        }
      ],
      "stateMutability": "nonpayable",
      "type": "function"
    },
    {
      "inputs": [
        {
          "internalType": "uint256",
          "name": "tokenId",
          "type": "uint256"
        }
      ],
      "name": "ownerOf",
      "outputs": [
        {
          "internalType": "address",
          "name": "",
          "type": "address"
        }
      ],
      "stateMutability": "view",
      "type": "function"
    },
    {
      "inputs": [
        {
          "internalType": "address",
          "name": "",
          "type": "address"
        },
        {
          "internalType": "address",
          "name": "",
          "type": "address"
        },
        {
          "internalType": "uint256",
          "name": "",
          "type": "uint256"
        }
      ],
      "name": "safeTransferFrom",
      "outputs": [],
      "stateMutability": "pure",
      "type": "function"
    },
    {
      "inputs": [
        {
          "internalType": "address",
          "name": "from",
          "type": "address"
        },
        {
          "internalType": "address",
          "name": "to",
          "type": "address"
        },
        {
          "internalType": "uint256",
          "name": "tokenId",
          "type": "uint256"
        },
        {
          "internalType": "bytes",
          "name": "_data",
          "type": "bytes"
        }
      ],
      "name": "safeTransferFrom",
      "outputs": [],
      "stateMutability": "nonpayable",
      "type": "function"
    },
    {
      "inputs": [
        {
          "internalType": "address",
          "name": "operator",
          "type": "address"
        },
        {
          "internalType": "bool",
          "name": "approved",
          "type": "bool"
        }
      ],
      "name": "setApprovalForAll",
      "outputs": [],
      "stateMutability": "nonpayable",
      "type": "function"
    },
    {
      "inputs": [],
      "name": "size",
      "outputs": [
        {
          "internalType": "uint256",
          "name": "",
          "type": "uint256"
        }
      ],
      "stateMutability": "view",
      "type": "function"
    },
    {
      "inputs": [
        {
          "internalType": "bytes4",
          "name": "interfaceId",
          "type": "bytes4"
        }
      ],
      "name": "supportsInterface",
      "outputs": [
        {
          "internalType": "bool",
          "name": "",
          "type": "bool"
        }
      ],
      "stateMutability": "view",
      "type": "function"
    },
    {
      "inputs": [],
      "name": "symbol",
      "outputs": [
        {
          "internalType": "string",
          "name": "",
          "type": "string"
        }
      ],
      "stateMutability": "view",
      "type": "function"
    },
    {
      "inputs": [
        {
          "internalType": "uint256",
          "name": "tokenId",
          "type": "uint256"
        }
      ],
      "name": "tokenURI",
      "outputs": [
        {
          "internalType": "string",
          "name": "",
          "type": "string"
        }
      ],
      "stateMutability": "view",
      "type": "function"
    },
    {
      "inputs": [
        {
          "internalType": "address",
          "name": "",
          "type": "address"
        },
        {
          "internalType": "address",
          "name": "",
          "type": "address"
        },
        {
          "internalType": "uint256",
          "name": "",
          "type": "uint256"
        }
      ],
      "name": "transferFrom",
      "outputs": [],
      "stateMutability": "pure",
      "type": "function"
    }
  ],
  "bytecode": "0x60c06040523480156200001157600080fd5b5060405162004484380380620044848339818101604052810190620000379190620002d0565b848481600090805190602001906200005192919062000180565b5080600190805190602001906200006a92919062000180565b5050508273ffffffffffffffffffffffffffffffffffffffff16620000946200017860201b60201c565b73ffffffffffffffffffffffffffffffffffffffff1614620000ed576040517f08c379a0000000000000000000000000000000000000000000000000000000008152600401620000e490620003ab565b60405180910390fd5b82600960006101000a81548173ffffffffffffffffffffffffffffffffffffffff021916908373ffffffffffffffffffffffffffffffffffffffff1602179055508173ffffffffffffffffffffffffffffffffffffffff1660808173ffffffffffffffffffffffffffffffffffffffff1660601b815250508060a08181525050505050505062000635565b600033905090565b8280546200018e90620004b1565b90600052602060002090601f016020900481019282620001b25760008555620001fe565b82601f10620001cd57805160ff1916838001178555620001fe565b82800160010185558215620001fe579182015b82811115620001fd578251825591602001919060010190620001e0565b5b5090506200020d919062000211565b5090565b5b808211156200022c57600081600090555060010162000212565b5090565b6000620002476200024184620003f6565b620003cd565b9050828152602081018484840111156200026057600080fd5b6200026d8482856200047b565b509392505050565b600081519050620002868162000601565b92915050565b600082601f8301126200029e57600080fd5b8151620002b084826020860162000230565b91505092915050565b600081519050620002ca816200061b565b92915050565b600080600080600060a08688031215620002e957600080fd5b600086015167ffffffffffffffff8111156200030457600080fd5b62000312888289016200028c565b955050602086015167ffffffffffffffff8111156200033057600080fd5b6200033e888289016200028c565b9450506040620003518882890162000275565b9350506060620003648882890162000275565b92505060806200037788828901620002b9565b9150509295509295909350565b6000620003936041836200042c565b9150620003a0826200058c565b606082019050919050565b60006020820190508181036000830152620003c68162000384565b9050919050565b6000620003d9620003ec565b9050620003e78282620004e7565b919050565b6000604051905090565b600067ffffffffffffffff8211156200041457620004136200054c565b5b6200041f826200057b565b9050602081019050919050565b600082825260208201905092915050565b60006200044a8262000451565b9050919050565b600073ffffffffffffffffffffffffffffffffffffffff82169050919050565b6000819050919050565b60005b838110156200049b5780820151818401526020810190506200047e565b83811115620004ab576000848401525b50505050565b60006002820490506001821680620004ca57607f821691505b60208210811415620004e157620004e06200051d565b5b50919050565b620004f2826200057b565b810181811067ffffffffffffffff821117156200051457620005136200054c565b5b80604052505050565b7f4e487b7100000000000000000000000000000000000000000000000000000000600052602260045260246000fd5b7f4e487b7100000000000000000000000000000000000000000000000000000000600052604160045260246000fd5b6000601f19601f8301169050919050565b7f736f756c20636f6e74727563746f723a206f6e6c7920736f756c206d616e616760008201527f65722063616e20696e697469616c697a65206120736f756c20696e7374616e6360208201527f6500000000000000000000000000000000000000000000000000000000000000604082015250565b6200060c816200043d565b81146200061857600080fd5b50565b620006268162000471565b81146200063257600080fd5b50565b60805160601c60a051613e0d6200067760003960005050600081816105b40152818161098101528181610c7301528181610d8f0152610fca0152613e0d6000f3fe608060405234801561001057600080fd5b506004361061014d5760003560e01c806370a08231116100c3578063a88f75f71161007c578063a88f75f7146103ea578063b88d4fde14610406578063c28fdef614610422578063c60a2e3314610452578063c87b56dd1461046e578063e985e9c51461049e5761014d565b806370a0823114610314578063893d20e81461034457806392089c4614610362578063949d225d1461039257806395d89b41146103b0578063a22cb465146103ce5761014d565b8063150b7a0211610115578063150b7a021461021c5780631626ba7e1461024c57806323b872dd1461027c5780633bb3a24d1461029857806342842e0e146102c85780636352211e146102e45761014d565b806301ffc9a7146101525780630363dd1d1461018257806306fdde03146101b2578063081812fc146101d0578063095ea7b314610200575b600080fd5b61016c600480360381019061016791906129dd565b6104ce565b6040516101799190613015565b60405180910390f35b61019c60048036038101906101979190612a2f565b6105b0565b6040516101a99190613362565b60405180910390f35b6101ba610658565b6040516101c791906130c0565b60405180910390f35b6101ea60048036038101906101e59190612a70565b6106ea565b6040516101f79190612eeb565b60405180910390f35b61021a6004803603810190610215919061294d565b61076f565b005b610236600480360381019061023191906127be565b610887565b60405161024391906130a5565b60405180910390f35b61026660048036038101906102619190612989565b610978565b60405161027391906130a5565b60405180910390f35b6102966004803603810190610291919061276f565b6109ea565b005b6102b260048036038101906102ad9190612a70565b610a25565b6040516102bf91906130c0565b60405180910390f35b6102e260048036038101906102dd919061276f565b610aca565b005b6102fe60048036038101906102f99190612a70565b610b05565b60405161030b9190612eeb565b60405180910390f35b61032e6004803603810190610329919061270a565b610bb7565b60405161033b9190613362565b60405180910390f35b61034c610c6f565b6040516103599190612eeb565b60405180910390f35b61037c60048036038101906103779190612a70565b610c97565b6040516103899190612eeb565b60405180910390f35b61039a610cd4565b6040516103a79190613362565b60405180910390f35b6103b8610ce5565b6040516103c591906130c0565b60405180910390f35b6103e860048036038101906103e39190612839565b610d77565b005b61040460048036038101906103ff91906128c9565b610d8d565b005b610420600480360381019061041b91906127be565b610ebb565b005b61043c60048036038101906104379190612875565b610f1d565b6040516104499190613362565b60405180910390f35b61046c60048036038101906104679190612875565b610fc8565b005b61048860048036038101906104839190612a70565b6110f0565b60405161049591906130c0565b60405180910390f35b6104b860048036038101906104b39190612733565b611242565b6040516104c59190613015565b60405180910390f35b60007f80ac58cd000000000000000000000000000000000000000000000000000000007bffffffffffffffffffffffffffffffffffffffffffffffffffffffff1916827bffffffffffffffffffffffffffffffffffffffffffffffffffffffff1916148061059957507f5b5e139f000000000000000000000000000000000000000000000000000000007bffffffffffffffffffffffffffffffffffffffffffffffffffffffff1916827bffffffffffffffffffffffffffffffffffffffffffffffffffffffff1916145b806105a957506105a8826112d6565b5b9050919050565b60007f000000000000000000000000000000000000000000000000000000000000000073ffffffffffffffffffffffffffffffffffffffff166105f1611340565b73ffffffffffffffffffffffffffffffffffffffff1614610647576040517f08c379a000000000000000000000000000000000000000000000000000000000815260040161063e906132e2565b60405180910390fd5b6106513083611348565b9050919050565b606060008054610667906135da565b80601f0160208091040260200160405190810160405280929190818152602001828054610693906135da565b80156106e05780601f106106b5576101008083540402835291602001916106e0565b820191906000526020600020905b8154815290600101906020018083116106c357829003601f168201915b5050505050905090565b60006106f582611380565b610734576040517f08c379a000000000000000000000000000000000000000000000000000000000815260040161072b90613262565b60405180910390fd5b6004600083815260200190815260200160002060009054906101000a900473ffffffffffffffffffffffffffffffffffffffff169050919050565b600061077a82610b05565b90508073ffffffffffffffffffffffffffffffffffffffff168373ffffffffffffffffffffffffffffffffffffffff1614156107eb576040517f08c379a00000000000000000000000000000000000000000000000000000000081526004016107e2906132a2565b60405180910390fd5b8073ffffffffffffffffffffffffffffffffffffffff1661080a611340565b73ffffffffffffffffffffffffffffffffffffffff161480610839575061083881610833611340565b611242565b5b610878576040517f08c379a000000000000000000000000000000000000000000000000000000000815260040161086f906131a2565b60405180910390fd5b61088283836113ec565b505050565b60008061089460086114a5565b905061089e611340565b600a600083815260200190815260200160002060006101000a81548173ffffffffffffffffffffffffffffffffffffffff021916908373ffffffffffffffffffffffffffffffffffffffff16021790555082600b600083815260200190815260200160002090805190602001906109169291906124cf565b5061092160086114b3565b7fba0ba57811a3f47c3d68a5462d21f1518b14e0a58031ddc36f661d37398d741061094a611340565b30838660405161095d9493929190612f52565b60405180910390a163150b7a0260e01b915050949350505050565b60006109c583837f000000000000000000000000000000000000000000000000000000000000000073ffffffffffffffffffffffffffffffffffffffff166114c99092919063ffffffff16565b156109d957631234567860e01b90506109e4565b63ffffffff60e01b90505b92915050565b6040517f08c379a0000000000000000000000000000000000000000000000000000000008152600401610a1c90613342565b60405180910390fd5b6060600b60008381526020019081526020016000208054610a45906135da565b80601f0160208091040260200160405190810160405280929190818152602001828054610a71906135da565b8015610abe5780601f10610a9357610100808354040283529160200191610abe565b820191906000526020600020905b815481529060010190602001808311610aa157829003601f168201915b50505050509050919050565b6040517f08c379a0000000000000000000000000000000000000000000000000000000008152600401610afc90613302565b60405180910390fd5b6000806002600084815260200190815260200160002060009054906101000a900473ffffffffffffffffffffffffffffffffffffffff169050600073ffffffffffffffffffffffffffffffffffffffff168173ffffffffffffffffffffffffffffffffffffffff161415610bae576040517f08c379a0000000000000000000000000000000000000000000000000000000008152600401610ba5906131e2565b60405180910390fd5b80915050919050565b60008073ffffffffffffffffffffffffffffffffffffffff168273ffffffffffffffffffffffffffffffffffffffff161415610c28576040517f08c379a0000000000000000000000000000000000000000000000000000000008152600401610c1f906131c2565b60405180910390fd5b600360008373ffffffffffffffffffffffffffffffffffffffff1673ffffffffffffffffffffffffffffffffffffffff168152602001908152602001600020549050919050565b60007f0000000000000000000000000000000000000000000000000000000000000000905090565b6000600a600083815260200190815260200160002060009054906101000a900473ffffffffffffffffffffffffffffffffffffffff169050919050565b6000610ce060086114a5565b905090565b606060018054610cf4906135da565b80601f0160208091040260200160405190810160405280929190818152602001828054610d20906135da565b8015610d6d5780601f10610d4257610100808354040283529160200191610d6d565b820191906000526020600020905b815481529060010190602001808311610d5057829003601f168201915b5050505050905090565b610d89610d82611340565b83836116fa565b5050565b7f000000000000000000000000000000000000000000000000000000000000000073ffffffffffffffffffffffffffffffffffffffff16610dcc611340565b73ffffffffffffffffffffffffffffffffffffffff1614610e22576040517f08c379a0000000000000000000000000000000000000000000000000000000008152600401610e19906132e2565b60405180910390fd5b600960009054906101000a900473ffffffffffffffffffffffffffffffffffffffff1673ffffffffffffffffffffffffffffffffffffffff1663516a6828858585856040518563ffffffff1660e01b8152600401610e839493929190612fce565b600060405180830381600087803b158015610e9d57600080fd5b505af1158015610eb1573d6000803e3d6000fd5b5050505050505050565b610ecc610ec6611340565b83611867565b610f0b576040517f08c379a0000000000000000000000000000000000000000000000000000000008152600401610f02906132c2565b60405180910390fd5b610f1784848484611945565b50505050565b6000600960009054906101000a900473ffffffffffffffffffffffffffffffffffffffff1673ffffffffffffffffffffffffffffffffffffffff16610f60611340565b73ffffffffffffffffffffffffffffffffffffffff1614610fb6576040517f08c379a0000000000000000000000000000000000000000000000000000000008152600401610fad90613322565b60405180910390fd5b610fc08383611348565b905092915050565b7f000000000000000000000000000000000000000000000000000000000000000073ffffffffffffffffffffffffffffffffffffffff16611007611340565b73ffffffffffffffffffffffffffffffffffffffff161461105d576040517f08c379a0000000000000000000000000000000000000000000000000000000008152600401611054906132e2565b60405180910390fd5b600960009054906101000a900473ffffffffffffffffffffffffffffffffffffffff1673ffffffffffffffffffffffffffffffffffffffff1663d7f8c9c083836040518363ffffffff1660e01b81526004016110ba929190612f9e565b600060405180830381600087803b1580156110d457600080fd5b505af11580156110e8573d6000803e3d6000fd5b505050505050565b60606110fb82611380565b61113a576040517f08c379a000000000000000000000000000000000000000000000000000000000815260040161113190613242565b60405180910390fd5b600060066000848152602001908152602001600020805461115a906135da565b80601f0160208091040260200160405190810160405280929190818152602001828054611186906135da565b80156111d35780601f106111a8576101008083540402835291602001916111d3565b820191906000526020600020905b8154815290600101906020018083116111b657829003601f168201915b5050505050905060006111e46119a1565b90506000815114156111fa57819250505061123d565b60008251111561122f578082604051602001611217929190612ec7565b6040516020818303038152906040529250505061123d565b611238846119b8565b925050505b919050565b6000600560008473ffffffffffffffffffffffffffffffffffffffff1673ffffffffffffffffffffffffffffffffffffffff16815260200190815260200160002060008373ffffffffffffffffffffffffffffffffffffffff1673ffffffffffffffffffffffffffffffffffffffff16815260200190815260200160002060009054906101000a900460ff16905092915050565b60007f01ffc9a7000000000000000000000000000000000000000000000000000000007bffffffffffffffffffffffffffffffffffffffffffffffffffffffff1916827bffffffffffffffffffffffffffffffffffffffffffffffffffffffff1916149050919050565b600033905090565b60008061135560076114a5565b9050611362848285611a5f565b61136c8184611aba565b61137660076114b3565b8091505092915050565b60008073ffffffffffffffffffffffffffffffffffffffff166002600084815260200190815260200160002060009054906101000a900473ffffffffffffffffffffffffffffffffffffffff1673ffffffffffffffffffffffffffffffffffffffff1614159050919050565b816004600083815260200190815260200160002060006101000a81548173ffffffffffffffffffffffffffffffffffffffff021916908373ffffffffffffffffffffffffffffffffffffffff160217905550808273ffffffffffffffffffffffffffffffffffffffff1661145f83610b05565b73ffffffffffffffffffffffffffffffffffffffff167f8c5be1e5ebec7d5bd14f71427d1e84f3dd0314c0f7b2291e5b200ac8c7c3b92560405160405180910390a45050565b600081600001549050919050565b6001816000016000828254019250508190555050565b60008060006114d88585611b2e565b9150915060006004811115611516577f4e487b7100000000000000000000000000000000000000000000000000000000600052602160045260246000fd5b81600481111561154f577f4e487b7100000000000000000000000000000000000000000000000000000000600052602160045260246000fd5b14801561158757508573ffffffffffffffffffffffffffffffffffffffff168273ffffffffffffffffffffffffffffffffffffffff16145b15611597576001925050506116f3565b6000808773ffffffffffffffffffffffffffffffffffffffff16631626ba7e60e01b88886040516024016115cc929190613030565b604051602081830303815290604052907bffffffffffffffffffffffffffffffffffffffffffffffffffffffff19166020820180517bffffffffffffffffffffffffffffffffffffffffffffffffffffffff83818316178352505050506040516116369190612eb0565b600060405180830381855afa9150503d8060008114611671576040519150601f19603f3d011682016040523d82523d6000602084013e611676565b606091505b5091509150818015611689575060208151145b80156116ec5750631626ba7e60e01b7bffffffffffffffffffffffffffffffffffffffffffffffffffffffff1916818060200190518101906116cb9190612a06565b7bffffffffffffffffffffffffffffffffffffffffffffffffffffffff1916145b9450505050505b9392505050565b8173ffffffffffffffffffffffffffffffffffffffff168373ffffffffffffffffffffffffffffffffffffffff161415611769576040517f08c379a000000000000000000000000000000000000000000000000000000000815260040161176090613162565b60405180910390fd5b80600560008573ffffffffffffffffffffffffffffffffffffffff1673ffffffffffffffffffffffffffffffffffffffff16815260200190815260200160002060008473ffffffffffffffffffffffffffffffffffffffff1673ffffffffffffffffffffffffffffffffffffffff16815260200190815260200160002060006101000a81548160ff0219169083151502179055508173ffffffffffffffffffffffffffffffffffffffff168373ffffffffffffffffffffffffffffffffffffffff167f17307eab39ab6107e8899845ad3d59bd9653f200f220920489ca2b5937696c318360405161185a9190613015565b60405180910390a3505050565b600061187282611380565b6118b1576040517f08c379a00000000000000000000000000000000000000000000000000000000081526004016118a890613182565b60405180910390fd5b60006118bc83610b05565b90508073ffffffffffffffffffffffffffffffffffffffff168473ffffffffffffffffffffffffffffffffffffffff1614806118fe57506118fd8185611242565b5b8061193c57508373ffffffffffffffffffffffffffffffffffffffff16611924846106ea565b73ffffffffffffffffffffffffffffffffffffffff16145b91505092915050565b611950848484611bb1565b61195c84848484611e18565b61199b576040517f08c379a0000000000000000000000000000000000000000000000000000000008152600401611992906130e2565b60405180910390fd5b50505050565b606060405180602001604052806000815250905090565b60606119c382611380565b611a02576040517f08c379a00000000000000000000000000000000000000000000000000000000081526004016119f990613282565b60405180910390fd5b6000611a0c6119a1565b90506000815111611a2c5760405180602001604052806000815250611a57565b80611a3684611faf565b604051602001611a47929190612ec7565b6040516020818303038152906040525b915050919050565b611a69838361215c565b611a766000848484611e18565b611ab5576040517f08c379a0000000000000000000000000000000000000000000000000000000008152600401611aac906130e2565b60405180910390fd5b505050565b611ac382611380565b611b02576040517f08c379a0000000000000000000000000000000000000000000000000000000008152600401611af990613202565b60405180910390fd5b80600660008481526020019081526020016000209080519060200190611b299291906124cf565b505050565b600080604183511415611b705760008060006020860151925060408601519150606086015160001a9050611b6487828585612336565b94509450505050611baa565b604083511415611ba1576000806020850151915060408501519050611b96868383612443565b935093505050611baa565b60006002915091505b9250929050565b8273ffffffffffffffffffffffffffffffffffffffff16611bd182610b05565b73ffffffffffffffffffffffffffffffffffffffff1614611c27576040517f08c379a0000000000000000000000000000000000000000000000000000000008152600401611c1e90613102565b60405180910390fd5b600073ffffffffffffffffffffffffffffffffffffffff168273ffffffffffffffffffffffffffffffffffffffff161415611c97576040517f08c379a0000000000000000000000000000000000000000000000000000000008152600401611c8e90613142565b60405180910390fd5b611ca28383836124a2565b611cad6000826113ec565b6001600360008573ffffffffffffffffffffffffffffffffffffffff1673ffffffffffffffffffffffffffffffffffffffff1681526020019081526020016000206000828254611cfd91906134d9565b925050819055506001600360008473ffffffffffffffffffffffffffffffffffffffff1673ffffffffffffffffffffffffffffffffffffffff1681526020019081526020016000206000828254611d549190613452565b92505081905550816002600083815260200190815260200160002060006101000a81548173ffffffffffffffffffffffffffffffffffffffff021916908373ffffffffffffffffffffffffffffffffffffffff160217905550808273ffffffffffffffffffffffffffffffffffffffff168473ffffffffffffffffffffffffffffffffffffffff167fddf252ad1be2c89b69c2b068fc378daa952ba7f163c4a11628f55a4df523b3ef60405160405180910390a4611e138383836124a7565b505050565b6000611e398473ffffffffffffffffffffffffffffffffffffffff166124ac565b15611fa2578373ffffffffffffffffffffffffffffffffffffffff1663150b7a02611e62611340565b8786866040518563ffffffff1660e01b8152600401611e849493929190612f06565b602060405180830381600087803b158015611e9e57600080fd5b505af1925050508015611ecf57506040513d601f19601f82011682018060405250810190611ecc9190612a06565b60015b611f52573d8060008114611eff576040519150601f19603f3d011682016040523d82523d6000602084013e611f04565b606091505b50600081511415611f4a576040517f08c379a0000000000000000000000000000000000000000000000000000000008152600401611f41906130e2565b60405180910390fd5b805181602001fd5b63150b7a0260e01b7bffffffffffffffffffffffffffffffffffffffffffffffffffffffff1916817bffffffffffffffffffffffffffffffffffffffffffffffffffffffff191614915050611fa7565b600190505b949350505050565b60606000821415611ff7576040518060400160405280600181526020017f30000000000000000000000000000000000000000000000000000000000000008152509050612157565b600082905060005b600082146120295780806120129061363d565b915050600a8261202291906134a8565b9150611fff565b60008167ffffffffffffffff81111561206b577f4e487b7100000000000000000000000000000000000000000000000000000000600052604160045260246000fd5b6040519080825280601f01601f19166020018201604052801561209d5781602001600182028036833780820191505090505b5090505b60008514612150576001826120b691906134d9565b9150600a856120c59190613686565b60306120d19190613452565b60f81b81838151811061210d577f4e487b7100000000000000000000000000000000000000000000000000000000600052603260045260246000fd5b60200101907effffffffffffffffffffffffffffffffffffffffffffffffffffffffffffff1916908160001a905350600a8561214991906134a8565b94506120a1565b8093505050505b919050565b600073ffffffffffffffffffffffffffffffffffffffff168273ffffffffffffffffffffffffffffffffffffffff1614156121cc576040517f08c379a00000000000000000000000000000000000000000000000000000000081526004016121c390613222565b60405180910390fd5b6121d581611380565b15612215576040517f08c379a000000000000000000000000000000000000000000000000000000000815260040161220c90613122565b60405180910390fd5b612221600083836124a2565b6001600360008473ffffffffffffffffffffffffffffffffffffffff1673ffffffffffffffffffffffffffffffffffffffff16815260200190815260200160002060008282546122719190613452565b92505081905550816002600083815260200190815260200160002060006101000a81548173ffffffffffffffffffffffffffffffffffffffff021916908373ffffffffffffffffffffffffffffffffffffffff160217905550808273ffffffffffffffffffffffffffffffffffffffff16600073ffffffffffffffffffffffffffffffffffffffff167fddf252ad1be2c89b69c2b068fc378daa952ba7f163c4a11628f55a4df523b3ef60405160405180910390a4612332600083836124a7565b5050565b6000807f7fffffffffffffffffffffffffffffff5d576e7357a4501ddfe92f46681b20a08360001c111561237157600060039150915061243a565b601b8560ff16141580156123895750601c8560ff1614155b1561239b57600060049150915061243a565b6000600187878787604051600081526020016040526040516123c09493929190613060565b6020604051602081039080840390855afa1580156123e2573d6000803e3d6000fd5b505050602060405103519050600073ffffffffffffffffffffffffffffffffffffffff168173ffffffffffffffffffffffffffffffffffffffff1614156124315760006001925092505061243a565b80600092509250505b94509492505050565b60008060007f7fffffffffffffffffffffffffffffffffffffffffffffffffffffffffffffff60001b841690506000601b60ff8660001c901c6124869190613452565b905061249487828885612336565b935093505050935093915050565b505050565b505050565b6000808273ffffffffffffffffffffffffffffffffffffffff163b119050919050565b8280546124db906135da565b90600052602060002090601f0160209004810192826124fd5760008555612544565b82601f1061251657805160ff1916838001178555612544565b82800160010185558215612544579182015b82811115612543578251825591602001919060010190612528565b5b5090506125519190612555565b5090565b5b8082111561256e576000816000905550600101612556565b5090565b6000612585612580846133a2565b61337d565b90508281526020810184848401111561259d57600080fd5b6125a8848285613598565b509392505050565b60006125c36125be846133d3565b61337d565b9050828152602081018484840111156125db57600080fd5b6125e6848285613598565b509392505050565b6000813590506125fd81613d64565b92915050565b60008135905061261281613d7b565b92915050565b60008135905061262781613d92565b92915050565b60008135905061263c81613da9565b92915050565b60008151905061265181613da9565b92915050565b60008083601f84011261266957600080fd5b8235905067ffffffffffffffff81111561268257600080fd5b60208301915083600182028301111561269a57600080fd5b9250929050565b600082601f8301126126b257600080fd5b81356126c2848260208601612572565b91505092915050565b600082601f8301126126dc57600080fd5b81356126ec8482602086016125b0565b91505092915050565b60008135905061270481613dc0565b92915050565b60006020828403121561271c57600080fd5b600061272a848285016125ee565b91505092915050565b6000806040838503121561274657600080fd5b6000612754858286016125ee565b9250506020612765858286016125ee565b9150509250929050565b60008060006060848603121561278457600080fd5b6000612792868287016125ee565b93505060206127a3868287016125ee565b92505060406127b4868287016126f5565b9150509250925092565b600080600080608085870312156127d457600080fd5b60006127e2878288016125ee565b94505060206127f3878288016125ee565b9350506040612804878288016126f5565b925050606085013567ffffffffffffffff81111561282157600080fd5b61282d878288016126a1565b91505092959194509250565b6000806040838503121561284c57600080fd5b600061285a858286016125ee565b925050602061286b85828601612603565b9150509250929050565b6000806040838503121561288857600080fd5b6000612896858286016125ee565b925050602083013567ffffffffffffffff8111156128b357600080fd5b6128bf858286016126cb565b9150509250929050565b600080600080606085870312156128df57600080fd5b60006128ed878288016125ee565b945050602085013567ffffffffffffffff81111561290a57600080fd5b612916878288016126cb565b935050604085013567ffffffffffffffff81111561293357600080fd5b61293f87828801612657565b925092505092959194509250565b6000806040838503121561296057600080fd5b600061296e858286016125ee565b925050602061297f858286016126f5565b9150509250929050565b6000806040838503121561299c57600080fd5b60006129aa85828601612618565b925050602083013567ffffffffffffffff8111156129c757600080fd5b6129d3858286016126a1565b9150509250929050565b6000602082840312156129ef57600080fd5b60006129fd8482850161262d565b91505092915050565b600060208284031215612a1857600080fd5b6000612a2684828501612642565b91505092915050565b600060208284031215612a4157600080fd5b600082013567ffffffffffffffff811115612a5b57600080fd5b612a67848285016126cb565b91505092915050565b600060208284031215612a8257600080fd5b6000612a90848285016126f5565b91505092915050565b612aa28161350d565b82525050565b612ab18161351f565b82525050565b612ac08161352b565b82525050565b612acf81613535565b82525050565b6000612ae1838561341a565b9350612aee838584613598565b612af783613773565b840190509392505050565b6000612b0d82613404565b612b17818561341a565b9350612b278185602086016135a7565b612b3081613773565b840191505092915050565b6000612b4682613404565b612b50818561342b565b9350612b608185602086016135a7565b80840191505092915050565b6000612b778261340f565b612b818185613436565b9350612b918185602086016135a7565b612b9a81613773565b840191505092915050565b6000612bb08261340f565b612bba8185613447565b9350612bca8185602086016135a7565b80840191505092915050565b6000612be3603283613436565b9150612bee82613784565b604082019050919050565b6000612c06602583613436565b9150612c11826137d3565b604082019050919050565b6000612c29601c83613436565b9150612c3482613822565b602082019050919050565b6000612c4c602483613436565b9150612c578261384b565b604082019050919050565b6000612c6f601983613436565b9150612c7a8261389a565b602082019050919050565b6000612c92602c83613436565b9150612c9d826138c3565b604082019050919050565b6000612cb5603883613436565b9150612cc082613912565b604082019050919050565b6000612cd8602a83613436565b9150612ce382613961565b604082019050919050565b6000612cfb602983613436565b9150612d06826139b0565b604082019050919050565b6000612d1e602e83613436565b9150612d29826139ff565b604082019050919050565b6000612d41602083613436565b9150612d4c82613a4e565b602082019050919050565b6000612d64603183613436565b9150612d6f82613a77565b604082019050919050565b6000612d87602c83613436565b9150612d9282613ac6565b604082019050919050565b6000612daa602f83613436565b9150612db582613b15565b604082019050919050565b6000612dcd602183613436565b9150612dd882613b64565b604082019050919050565b6000612df0603183613436565b9150612dfb82613bb3565b604082019050919050565b6000612e13603c83613436565b9150612e1e82613c02565b604082019050919050565b6000612e36602a83613436565b9150612e4182613c51565b604082019050919050565b6000612e59604283613436565b9150612e6482613ca0565b606082019050919050565b6000612e7c602683613436565b9150612e8782613d15565b604082019050919050565b612e9b81613581565b82525050565b612eaa8161358b565b82525050565b6000612ebc8284612b3b565b915081905092915050565b6000612ed38285612ba5565b9150612edf8284612ba5565b91508190509392505050565b6000602082019050612f006000830184612a99565b92915050565b6000608082019050612f1b6000830187612a99565b612f286020830186612a99565b612f356040830185612e92565b8181036060830152612f478184612b02565b905095945050505050565b6000608082019050612f676000830187612a99565b612f746020830186612a99565b612f816040830185612e92565b8181036060830152612f938184612b6c565b905095945050505050565b6000604082019050612fb36000830185612a99565b8181036020830152612fc58184612b6c565b90509392505050565b6000606082019050612fe36000830187612a99565b8181036020830152612ff58186612b6c565b9050818103604083015261300a818486612ad5565b905095945050505050565b600060208201905061302a6000830184612aa8565b92915050565b60006040820190506130456000830185612ab7565b81810360208301526130578184612b02565b90509392505050565b60006080820190506130756000830187612ab7565b6130826020830186612ea1565b61308f6040830185612ab7565b61309c6060830184612ab7565b95945050505050565b60006020820190506130ba6000830184612ac6565b92915050565b600060208201905081810360008301526130da8184612b6c565b905092915050565b600060208201905081810360008301526130fb81612bd6565b9050919050565b6000602082019050818103600083015261311b81612bf9565b9050919050565b6000602082019050818103600083015261313b81612c1c565b9050919050565b6000602082019050818103600083015261315b81612c3f565b9050919050565b6000602082019050818103600083015261317b81612c62565b9050919050565b6000602082019050818103600083015261319b81612c85565b9050919050565b600060208201905081810360008301526131bb81612ca8565b9050919050565b600060208201905081810360008301526131db81612ccb565b9050919050565b600060208201905081810360008301526131fb81612cee565b9050919050565b6000602082019050818103600083015261321b81612d11565b9050919050565b6000602082019050818103600083015261323b81612d34565b9050919050565b6000602082019050818103600083015261325b81612d57565b9050919050565b6000602082019050818103600083015261327b81612d7a565b9050919050565b6000602082019050818103600083015261329b81612d9d565b9050919050565b600060208201905081810360008301526132bb81612dc0565b9050919050565b600060208201905081810360008301526132db81612de3565b9050919050565b600060208201905081810360008301526132fb81612e06565b9050919050565b6000602082019050818103600083015261331b81612e29565b9050919050565b6000602082019050818103600083015261333b81612e4c565b9050919050565b6000602082019050818103600083015261335b81612e6f565b9050919050565b60006020820190506133776000830184612e92565b92915050565b6000613387613398565b9050613393828261360c565b919050565b6000604051905090565b600067ffffffffffffffff8211156133bd576133bc613744565b5b6133c682613773565b9050602081019050919050565b600067ffffffffffffffff8211156133ee576133ed613744565b5b6133f782613773565b9050602081019050919050565b600081519050919050565b600081519050919050565b600082825260208201905092915050565b600081905092915050565b600082825260208201905092915050565b600081905092915050565b600061345d82613581565b915061346883613581565b9250827fffffffffffffffffffffffffffffffffffffffffffffffffffffffffffffffff0382111561349d5761349c6136b7565b5b828201905092915050565b60006134b382613581565b91506134be83613581565b9250826134ce576134cd6136e6565b5b828204905092915050565b60006134e482613581565b91506134ef83613581565b925082821015613502576135016136b7565b5b828203905092915050565b600061351882613561565b9050919050565b60008115159050919050565b6000819050919050565b60007fffffffff0000000000000000000000000000000000000000000000000000000082169050919050565b600073ffffffffffffffffffffffffffffffffffffffff82169050919050565b6000819050919050565b600060ff82169050919050565b82818337600083830152505050565b60005b838110156135c55780820151818401526020810190506135aa565b838111156135d4576000848401525b50505050565b600060028204905060018216806135f257607f821691505b6020821081141561360657613605613715565b5b50919050565b61361582613773565b810181811067ffffffffffffffff8211171561363457613633613744565b5b80604052505050565b600061364882613581565b91507fffffffffffffffffffffffffffffffffffffffffffffffffffffffffffffffff82141561367b5761367a6136b7565b5b600182019050919050565b600061369182613581565b915061369c83613581565b9250826136ac576136ab6136e6565b5b828206905092915050565b7f4e487b7100000000000000000000000000000000000000000000000000000000600052601160045260246000fd5b7f4e487b7100000000000000000000000000000000000000000000000000000000600052601260045260246000fd5b7f4e487b7100000000000000000000000000000000000000000000000000000000600052602260045260246000fd5b7f4e487b7100000000000000000000000000000000000000000000000000000000600052604160045260246000fd5b6000601f19601f8301169050919050565b7f4552433732313a207472616e7366657220746f206e6f6e20455243373231526560008201527f63656976657220696d706c656d656e7465720000000000000000000000000000602082015250565b7f4552433732313a207472616e736665722066726f6d20696e636f72726563742060008201527f6f776e6572000000000000000000000000000000000000000000000000000000602082015250565b7f4552433732313a20746f6b656e20616c7265616479206d696e74656400000000600082015250565b7f4552433732313a207472616e7366657220746f20746865207a65726f2061646460008201527f7265737300000000000000000000000000000000000000000000000000000000602082015250565b7f4552433732313a20617070726f766520746f2063616c6c657200000000000000600082015250565b7f4552433732313a206f70657261746f7220717565727920666f72206e6f6e657860008201527f697374656e7420746f6b656e0000000000000000000000000000000000000000602082015250565b7f4552433732313a20617070726f76652063616c6c6572206973206e6f74206f7760008201527f6e6572206e6f7220617070726f76656420666f7220616c6c0000000000000000602082015250565b7f4552433732313a2062616c616e636520717565727920666f7220746865207a6560008201527f726f206164647265737300000000000000000000000000000000000000000000602082015250565b7f4552433732313a206f776e657220717565727920666f72206e6f6e657869737460008201527f656e7420746f6b656e0000000000000000000000000000000000000000000000602082015250565b7f45524337323155524953746f726167653a2055524920736574206f66206e6f6e60008201527f6578697374656e7420746f6b656e000000000000000000000000000000000000602082015250565b7f4552433732313a206d696e7420746f20746865207a65726f2061646472657373600082015250565b7f45524337323155524953746f726167653a2055524920717565727920666f722060008201527f6e6f6e6578697374656e7420746f6b656e000000000000000000000000000000602082015250565b7f4552433732313a20617070726f76656420717565727920666f72206e6f6e657860008201527f697374656e7420746f6b656e0000000000000000000000000000000000000000602082015250565b7f4552433732314d657461646174613a2055524920717565727920666f72206e6f60008201527f6e6578697374656e7420746f6b656e0000000000000000000000000000000000602082015250565b7f4552433732313a20617070726f76616c20746f2063757272656e74206f776e6560008201527f7200000000000000000000000000000000000000000000000000000000000000602082015250565b7f4552433732313a207472616e736665722063616c6c6572206973206e6f74206f60008201527f776e6572206e6f7220617070726f766564000000000000000000000000000000602082015250565b7f6f6e6c794f776e65723a206f6e6c79206f776e6572206f662074686520636f6e60008201527f74726163742063616e2063616c6c20746869732066756e6374696f6e00000000602082015250565b7f736166655472616e7366657246726f6d3a20534254206973206e6f742074726160008201527f6e736665727261626c6500000000000000000000000000000000000000000000602082015250565b7f736f756c4d616e616765724f6e6c793a206f6e6c7920736f756c206d616e616760008201527f657220636f6e74726163742063616e2063616c6c20746869732066756e63746960208201527f6f6e000000000000000000000000000000000000000000000000000000000000604082015250565b7f7472616e7366657246726f6d3a20534254206973206e6f74207472616e73666560008201527f727261626c650000000000000000000000000000000000000000000000000000602082015250565b613d6d8161350d565b8114613d7857600080fd5b50565b613d848161351f565b8114613d8f57600080fd5b50565b613d9b8161352b565b8114613da657600080fd5b50565b613db281613535565b8114613dbd57600080fd5b50565b613dc981613581565b8114613dd457600080fd5b5056fea26469706673582212203f84d332a9286cee8ec79d667628a5e06e6eda1e8c2a5fd4624754ba6849783b64736f6c63430008040033",
  "linkReferences": {},
  "deployedLinkReferences": {}
}